:020000040800F2
:1000000000000220C9180008051600080B16000899
:1000100011160008171600081D1600080000000041
:10002000000000000000000000000000818A0008BD
:100030002316000800000000D18C0008914E000833
:1000400019190008191900081919000819190008C8
:1000500019190008191900081919000819190008B8
:1000600019190008191900081919000819190008A8
:100070001919000819190008191900081919000898
:100080001919000819190008191900081919000888
:100090001919000819190008191900081919000878
:1000A0001919000831160008191900081919000853
:1000B0001919000819190008191900081919000858
:1000C0001919000819190008191900081919000848
:1000D0001919000819190008A9E5000819190008DC
:1000E0001919000819190008191900081919000828
:1000F0001919000819190008191900081919000818
:100100001919000819190008191900081919000807
:1001100019190008191900081919000819190008F7
:1001200019190008191900081919000819190008E7
:10013000191900080000000000000000191900084B
:1001400019190008191900081919000819190008C7
:1001500019190008191900081919000819190008B7
:1001600019190008191900081919000819190008A7
:1001700019190008191900081919000800000000D1
:100180000000000019190008000000000000000035
:1001900019190008000000000000000019190008EB
:1001A0000000000000000000000000001919000815
:1001B0001919000819190008191900081919000857
:0401C0001919000801
:1001D00010B5054C237833B9044B13B10448AFF381
:1001E00000800123237010BD2402002000000000C5
:1001F000FC84010808B5034B1BB103490348AFF366
:10020000008008BD0000000028020020FC840108D6
:1002100010F8012B11F8013B012A28BF9A42F7D0B0
:10022000D01A7047034613F8012B002AFBD1181A85
:1002300001387047000000000000000000000000CE
:1002400001F0FF01102A2BDB10F0070F08D010F887
:10025000013B013A8B422DD010F0070F42B3F6D18B
:10026000F0B441EA012141EA014122F007047FF0A4
:1002700000070023F0E80256083C85EA010586EAFB
:10028000010685FA47F5A3FA87F586FA47F6A5FA37
:1002900087F68EB9EED1F0BC01F0FF0102F0070243
:1002A00032B110F8013B013A83EA010313B1F8D1EE
:1002B0000020704701387047002D06BF35460338CF
:1002C000073815F0010F07D1013015F4807F02BF08
:1002D000013015F4C03F0130F0BC0138704700BF59
:1002E00081F0004102E000BF83F0004330B54FEAE7
:1002F00041044FEA430594EA050F08BF90EA020F54
:100300001FBF54EA000C55EA020C7FEA645C7FEAE6
:10031000655C00F0E2804FEA5454D4EB5555B8BF09
:100320006D420CDD2C4480EA020281EA030382EA7A
:10033000000083EA010180EA020281EA0303362D0C
:1003400088BF30BD11F0004F4FEA01314FF4801CDF
:100350004CEA113102D0404261EB410113F0004FF1
:100360004FEA03334CEA133302D0524263EB4303A8
:1003700094EA050F00F0A780A4F10104D5F1200E46
:100380000DDB02FA0EFC22FA05F2801841F10001A1
:1003900003FA0EF2801843FA05F359410EE0A5F175
:1003A00020050EF1200E012A03FA0EFC28BF4CF0A6
:1003B000020C43FA05F3C01851EBE37101F000455C
:1003C00007D54FF0000EDCF1000C7EEB00006EEB69
:1003D0000101B1F5801F1BD3B1F5001F0CD34908F3
:1003E0005FEA30004FEA3C0C04F101044FEA44524A
:1003F00012F5800F80F09A80BCF1004F08BF5FEAD1
:10040000500C50F1000041EB045141EA050130BDB0
:100410005FEA4C0C404141EB0101013C28BFB1F5C2
:10042000801FE9D291F0000F04BF01460020B1FA0D
:1004300081F308BF2033A3F10B03B3F120020CDAE0
:100440000C3208DD02F1140CC2F10C0201FA0CF0BE
:1004500021FA02F10CE002F11402D8BFC2F1200C23
:1004600001FA02F120FA0CFCDCBF41EA0C019040D9
:10047000E41AA2BF01EB0451294330BD6FEA040422
:100480001F3C1CDA0C340EDC04F11404C4F120020D
:1004900020FA04F001FA02F340EA030021FA04F31F
:1004A00045EA030130BDC4F10C04C4F1200220FA76
:1004B00002F001FA04F340EA0300294630BD21FAB4
:1004C00004F0294630BD94F0000F83F4801306BF7A
:1004D00081F480110134013D4EE77FEA645C18BF6E
:1004E0007FEA655C29D094EA050F08BF90EA020F05
:1004F00005D054EA000C04BF1946104630BD91EAFD
:10050000030F1EBF0021002030BD5FEA545C05D1FF
:100510004000494128BF41F0004130BD14F580043E
:100520003CBF01F5801130BD01F0004545F0FE41B2
:1005300041F470014FF0000030BD7FEA645C1ABFE7
:10054000194610467FEA655C1CBF0B46024650EA1E
:10055000013406BF52EA033591EA030F41F400214A
:1005600030BD00BF90F0000F04BF0021704730B5D0
:100570004FF4806404F132044FF000054FF00001A5
:1005800050E700BF90F0000F04BF0021704730B566
:100590004FF4806404F1320410F0004548BF40423B
:1005A0004FF000013EE700BF42004FEAE2014FEA90
:1005B00031014FEA02701FBF12F07F4393F07F4F6B
:1005C00081F06051704732F07F4208BF704793F06E
:1005D0007F4F04BF41F40021704730B54FF4607481
:1005E00001F0004521F000411CE700BF50EA010284
:1005F00008BF704730B54FF000050AE050EA01022D
:1006000008BF704730B511F0004502D5404261EB9C
:1006100041014FF4806404F132045FEA915C3FF4DD
:10062000D8AE4FF003025FEADC0C18BF03325FEA7A
:10063000DC0C18BF033202EBDC02C2F1200300FA2B
:1006400003FC20FA02F001FA03FE40EA0E0021FA50
:1006500002F11444BDE600BF70B54FF0FF0C4CF43E
:10066000E06C1CEA11541DBF1CEA135594EA0C0FF0
:1006700095EA0C0F00F0DEF82C4481EA030621EA2B
:100680004C5123EA4C5350EA013518BF52EA033566
:1006900041F4801143F4801338D0A0FB02CE4FF018
:1006A0000005E1FB02E506F00042E0FB03E54FF048
:1006B0000006E1FB03569CF0000F18BF4EF0010E40
:1006C000A4F1FF04B6F5007F64F5407404D25FEA3C
:1006D0004E0E6D4146EB060642EAC62141EA5551EF
:1006E0004FEAC52040EA5E504FEACE2EB4F1FD0C31
:1006F00088BFBCF5E06F1ED8BEF1004F08BF5FEAAF
:10070000500E50F1000041EB045170BD06F0004660
:1007100046EA010140EA020081EA0301B4EB5C040D
:10072000C2BFD4EB0C0541EA045170BD41F4801105
:100730004FF0000E013C00F3AB8014F1360FDEBF2A
:10074000002001F0004170BDC4F10004203C35DA06
:100750000C341BDC04F11404C4F1200500FA05F389
:1007600020FA04F001FA05F240EA020001F000422A
:1007700021F0004110EBD37021FA04F642EB0601A0
:100780005EEA430E08BF20EAD37070BDC4F10C04CA
:10079000C4F1200500FA04F320FA05F001FA04F28E
:1007A00040EA020001F0004110EBD37041F100017A
:1007B0005EEA430E08BF20EAD37070BDC4F1200585
:1007C00000FA05F24EEA020E20FA04F301FA05F2ED
:1007D00043EA020321FA04F001F0004121FA04F295
:1007E00020EA020000EBD3705EEA430E08BF20EA65
:1007F000D37070BD94F0000F0FD101F0004640009F
:1008000041EB010111F4801F08BF013CF7D041EA20
:10081000060195F0000F18BF704703F00046520024
:1008200043EB030313F4801F08BF013DF7D043EAF5
:100830000603704794EA0C0F0CEA135518BF95EAAB
:100840000C0F0CD050EA410618BF52EA4306D1D132
:1008500081EA030101F000414FF0000070BD50EA51
:10086000410606BF1046194652EA430619D094EADB
:100870000C0F02D150EA013613D195EA0C0F05D1C5
:1008800052EA03361CBF104619460AD181EA030119
:1008900001F0004141F0FE4141F470014FF00000D1
:1008A00070BD41F0FE4141F4780170BD70B54FF06C
:1008B000FF0C4CF4E06C1CEA11541DBF1CEA1355EC
:1008C00094EA0C0F95EA0C0F00F0A7F8A4EB0504CE
:1008D00081EA030E52EA03354FEA013100F08880C5
:1008E0004FEA03334FF0805545EA131343EA12638E
:1008F0004FEA022245EA111545EA10654FEA002643
:100900000EF000419D4208BF964244F1FD0404F5FB
:10091000407402D25B084FEA3202B61A65EB030557
:100920005B084FEA32024FF480104FF4002CB6EB14
:10093000020E75EB030E22BFB61A754640EA0C0094
:100940005B084FEA3202B6EB020E75EB030E22BFD4
:10095000B61A754640EA5C005B084FEA3202B6EB15
:10096000020E75EB030E22BFB61A754640EA9C00D4
:100970005B084FEA3202B6EB020E75EB030E22BFA4
:10098000B61A754640EADC0055EA060E18D04FEA62
:10099000051545EA16754FEA06164FEAC30343EA02
:1009A00052734FEAC2025FEA1C1CC0D111F4801FCF
:1009B0000BD141EA00014FF000004FF0004CB6E7C8
:1009C00011F4801F04BF01430020B4F1FD0C88BF67
:1009D000BCF5E06F3FF6AFAEB5EB030C04BFB6EB72
:1009E000020C5FEA500C50F1000041EB045170BD65
:1009F0000EF0004E4EEA113114EB5C04C2BFD4EB92
:100A00000C0541EA045170BD41F480114FF0000E15
:100A1000013C90E645EA060E8DE60CEA135594EA91
:100A20000C0F08BF95EA0C0F3FF43BAF94EA0C0F94
:100A30000AD150EA01347FF434AF95EA0C0F7FF409
:100A400025AF104619462CE795EA0C0F06D152EA5D
:100A500003353FF4FDAE1046194622E750EA410641
:100A600018BF52EA43067FF4C5AE50EA41047FF452
:100A70000DAF52EA43057FF4EBAE12E74FF0FF3CB7
:100A800006E000BF4FF0010C02E000BF4FF0010C88
:100A90004DF804CD4FEA410C7FEA6C5C4FEA430C01
:100AA00018BF7FEA6C5C1BD001B050EA410C0CBF50
:100AB00052EA430C91EA030F02BF90EA020F0020B2
:100AC000704710F1000F91EA030F58BF994208BF19
:100AD00090422CBFD8176FEAE37040F001007047D6
:100AE0004FEA410C7FEA6C5C02D150EA013C07D12D
:100AF0004FEA430C7FEA6C5CD6D152EA033CD3D078
:100B00005DF8040B704700BF8446104662468C4671
:100B10001946634600E000BF01B5FFF7B7FF0028A4
:100B200048BF10F1000F01BD4DF808EDFFF7F4FFCD
:100B30000CBF012000205DF808FB00BF4DF808ED58
:100B4000FFF7EAFF34BF012000205DF808FB00BF7B
:100B50004DF808EDFFF7E0FF94BF012000205DF89D
:100B600008FB00BF4DF808EDFFF7CEFF94BF012052
:100B700000205DF808FB00BF4DF808EDFFF7C4FF4B
:100B800034BF012000205DF808FB00BF4FEA410C94
:100B90007FEA6C5C02D150EA013C0AD14FEA430C77
:100BA0007FEA6C5C02D152EA033C02D14FF00000B4
:100BB00070474FF0010070474FEA410212F50012F2
:100BC00015D211D56FF47873B3EB625212D94FEA94
:100BD000C12343F0004343EA505311F0004F23FA7E
:100BE00002F018BF404270474FF00000704750EAD3
:100BF000013005D111F0004008BF6FF00040704790
:100C00004FF00000704700BF4A0011D212F50012E9
:100C100011D20DD56FF47873B3EB62520ED44FEA54
:100C2000C12343F0004343EA505323FA02F07047D4
:100C30004FF00000704750EA013002D14FF0FF3012
:100C400070474FF0000070474FEA4102B2F1E043B5
:100C500024BFB3F5001CDCF1FE5C0DD901F0004CA3
:100C60004FEAC0024CEA5070B2F1004F40EB8300F3
:100C700008BF20F00100704711F0804F21D113F11F
:100C80003872BCBF01F00040704741F480114FEA58
:100C90005252C2F11802C2F1200C10FA0CF320FAE1
:100CA00002F018BF40F001004FEAC1234FEAD323FE
:100CB00003FA0CFC40EA0C0023FA02F34FEA430368
:100CC000CCE77FEA625307D150EA01331EBF4FF0F1
:100CD000FE4040F44000704701F0004040F0FE400C
:100CE00040F40000704700BF53B94AB9002908BF5B
:100CF00000281CBF4FF0FF314FF0FF3000F0A4B9C7
:100D0000ADF1080C6DE904CE00F03CF8DDF804E02C
:100D1000DDE9022304B0704738B500220023044601
:100D20000D46FFF70BFF28B920462946BDE838409D
:100D300000F00AB8204605F1004100F005F84042F5
:100D400061EB410138BD00BFD0B50C4B0022064617
:100D50000F46FFF781FCFFF757FF0446FFF702FC41
:100D6000074B0022FFF778FC02460B463046394617
:100D7000FFF7BAFAFFF748FF2146D0BD0000F03D6B
:100D80000000F0412DE9F047089D04468C46002BF9
:100D900040F083808A42174647D9B2FA82F242B1C4
:100DA000C2F1200024FA00F09140974040EA010C83
:100DB00094404FEA1748230CBCFBF8F61FFA87FE55
:100DC00008FB16C143EA014306FB0EF1994209D91B
:100DD000FB1806F1FF3080F01981994240F216812C
:100DE000023E3B445B1AA4B2B3FBF8F008FB10339D
:100DF00044EA034400FB0EFEA64509D93C1900F164
:100E0000FF3380F00581A64540F2028102383C4460
:100E100040EA0640A4EB0E0400261DB1D440002396
:100E2000C5E900433146BDE8F08702B9FFDEB2FAFA
:100E300082F2002A50D1CB1B4FEA174E1FFA87F8D7
:100E40000126B3FBFEFC210C0EFB1C3341EA0341DF
:100E500008FB0CF38B4207D979180CF1FF3002D252
:100E60008B4200F2E9808446C91AA3B2B1FBFEF0BE
:100E70000EFB101143EA014408FB00F8A04507D916
:100E80003C1900F1FF3302D2A04500F2D980184688
:100E9000A4EB080440EA0C40BFE78B4209D9002DBF
:100EA00000F0B1800026C5E9000130463146BDE8BA
:100EB000F087B3FA83F6002E4AD18B4202D38242E6
:100EC00000F2B880841A61EB030101208C46002DEA
:100ED000A8D0C5E9004CA5E7C2F1200320FA03F62B
:100EE000974001FA02F04FEA174ED9403043030C05
:100EF000B1FBFEF61FFA87F80EFB161143EA014319
:100F000006FB08F1994204FA02F409D9FB1806F12C
:100F1000FF3C80F08D80994240F28A80023E3B4443
:100F20005B1A81B2B3FBFEF00EFB103341EA0341C2
:100F300000FB08F38B4207D9791800F1FF3C73D20C
:100F40008B4271D902383944CB1A40EA064678E719
:100F5000C6F1200C03FA06F422FA0CF31C4320FA23
:100F60000CF701FA06F34FEA144E21FA0CF11F4375
:100F70003B0CB1FBFEF91FFA84F80EFB191143EA92
:100F8000014109FB08FA8A4502FA06F200FA06F363
:100F900008D9611809F1FF3048D28A4546D9A9F12C
:100FA00002092144A1EB0A01BFB2B1FBFEF00EFB26
:100FB000101147EA014700FB08F8B84507D9E719BF
:100FC00000F1FF312ED2B8452CD90238274440EA2F
:100FD0000940A7EB0807A0FB02894F45C6464946D2
:100FE0001AD317D05DB1B3EB0E0267EB010707FA16
:100FF0000CFCF2404CEA0202F740C5E9002700264B
:101000003146BDE8F0872E4628460BE70646E9E65E
:101010001846FDE64345E5D2B8EB020E69EB040144
:101020000138DFE70846D2E760468DE78146B9E739
:10103000664675E730464AE7ACF1020C394413E7DF
:1010400002383C4424E700BF704700BF80B594B02D
:1010500000AF07F11C0334220021184611F030FDC7
:1010600007F1080300221A605A609A60DA601A6178
:1010700000237B602C4B1B6C2B4A43F08053136482
:10108000294B1B6C03F080537B607B6800233B6023
:10109000264B1B68254A43F440431360234B1B68CF
:1010A00003F440433B603B680123FB614FF4A02302
:1010B0003B6202237B634FF48003BB630423FB6327
:1010C000B4233B6402237B640223BB640223FB64DE
:1010D00007F11C03184601F0B3FA0346002B01D0B8
:1010E00000F0FAF900F05EFF0346002B01D000F09B
:1010F000F3F90F23BB600223FB6000233B614FF435
:10110000A0537B614FF48053BB6107F108030521B5
:10111000184600F097FF0346002B01D000F0DCF9E1
:1011200000BF5037BD4680BD00380240007000400F
:1011300080B500AF00F0F2FBFFF788FF03F0C2FEBE
:10114000054A0021054803F01DFF0346044A1360C9
:1011500003F0DCFEFEE700BF249B010865110008D8
:101160004002002080B582B000AF78600BF034FF01
:101170000CF0D6FC0CF04AF90346002B01D011F01C
:1011800033FB0BF08DFB0346002B01D011F02CFB41
:101190000AF0D4F80346002B01D011F025FB0DF026
:1011A00057FB0346002B01D011F01EFB0FF068F82F
:1011B0000346002B01D011F017FB0FF0C1FA0346D4
:1011C000002B01D011F010FB08F030F80346002B83
:1011D00001D011F009FB08F015FA0346002B01D0ED
:1011E00011F002FB11F0BEF80346002B02D011F003
:1011F000FBFA01E011F038F90A4A00210A4803F02D
:10120000C1FE0346094A1360094B1B68184603F0E8
:101210004BFF0346002B01D011F0E6FA00BF083760
:10122000BD4680BD489B01083512000844020020DD
:101230004002002080B588B000AF78600023002213
:101240000121304804F05EF803462F4A13602E4B0C
:101250001B684FF47A71184604F0D0F811F0D8FAF0
:10126000F861FB691B0CDBB2FB74FB691B0ADBB288
:10127000BB74FB69DBB27B7407F1130319461320BF
:101280000FF0EAFA07F11203194614200FF0E4FAFE
:1012900007F11103194615200FF0DEFA11F0CCFA10
:1012A000B861BB691B0CDBB23B74BB691B0ADBB2C8
:1012B000FB73BB69DBB2BB7307F110031946162041
:1012C0000FF0CAFA07F10F03194617200FF0C4FAFE
:1012D00007F10E03194618200FF0BEFA4FF0FF3247
:1012E0000021012003F05CFF78617B6903F00103BA
:1012F000002BF3D000200BF09BFC012011F008F92B
:10130000ECE700BF0D1300084802002080B582B052
:1013100000AF7860044B1B680121184603F0F2FE11
:1013200000BF0837BD4680BD4402002080B584B0B0
:1013300000AF4FF00003BB604FF000037B60002361
:10134000FB6000233B60514BDB68504A23F0807305
:10135000D3604E4BDB684D4A43F08073D3604C4BF7
:101360001B684B4A23F001031360494B1B68484A32
:1013700043F001031360464B00225A603B469FED49
:10138000451A0321F2EE040A9FED430A18460EF0B7
:10139000A3FC72B600BF3E4B5A68404B1B68D21A82
:1013A0003F4B1B6813443E4A1360394B5B68FB603C
:1013B00030BF374B5A68FB68D21A3A4B1B6813444C
:1013C000384A1360324B5B68344A136062B600BF20
:1013D00000F0DAFA0246344B1B68D31A632BD8D9D3
:1013E00000F0D2FA0346304A13602E4B1A682C4B99
:1013F0001B681344002B41D0294B1B6807EE903A21
:10140000F8EE677A9FED297A67EE876A254B1A68AE
:10141000234B1B68134407EE903AB8EE677AC6EE8A
:10142000877AC7ED027AD7ED027A214B93ED007AE5
:10143000F0EE470AB0EE670A16F0EAFBF0EE407AEB
:101440001B4BC3ED007A3B68D7ED027AB0EE670A1A
:1014500018460EF0A7FCF0EE407AC7ED017A07F1CE
:101460000803194619200FF0F7F911491A200FF057
:10147000F3F93B1D19461B200FF0EEF9094B002232
:101480001A60074B00221A6083E700BFF0ED00E00E
:10149000001000E000000000CDCCCC3D4C0200204C
:1014A0005002002054020020580200200000C842D0
:1014B0005C02002080B582B000AF78607B681B685A
:1014C000044A934201D100F04BFA00BF0837BD46F1
:1014D00080BD00BF0044014080B400AF72B600BFC1
:1014E000FEE780B483B000AF786000BF0C37BD4624
:1014F0005DF8047B7047000080B582B000AF002328
:101500007B60124B5B6C114A43F4804353640F4B76
:101510005B6C03F480437B607B6800233B600B4B78
:101520001B6C0A4A43F080531364084B1B6C03F096
:1015300080533B603B6800220F216FF0010000F0F8
:1015400022FB00BF0837BD4680BD00BF0038024007
:1015500080B58CB000AF78600023FB620023BB62D3
:1015600000227968192000F00EFB192000F027FBFB
:101570000023FB601F4B5B6C1E4A43F40033536433
:101580001C4B5B6C03F40033FB60FB6807F110023B
:1015900007F114031146184600F06EFE00F058FEE5
:1015A00003465B00FB62FB6A134AA2FB03239B0C0E
:1015B000013BBB62114B124A1A60104B40F2E732FA
:1015C000DA600E4ABB6A53600C4B00221A610B4B67
:1015D00000229A60094802F079F80346002B04D1F2
:1015E000064802F035F9034600E00123184630377B
:1015F000BD4680BD0038024083DE1B436C5900208D
:101600000044014080B400AFFEE780B400AFFEE7C5
:1016100080B400AFFEE780B400AFFEE780B400AF57
:10162000FEE780B400AF00BFBD465DF8047B7047A5
:1016300080B500AF024802F0DBFB00BF80BD00BFF9
:101640006C59002080B400AF01231846BD465DF8F8
:10165000047B704780B582B000AF7860396011F0CC
:10166000F5F8034616221A604FF0FF331846083784
:10167000BD4680BD80B582B000AF78604FF0FF31CD
:101680007868FFF7E7FFFEE780B586B000AFF86047
:10169000B9607A6000237B610AE0AFF30080014605
:1016A000BB685A1CBA60CAB21A707B6901337B618D
:1016B0007A697B689A42F0DB7B6818461837BD462A
:1016C00080BD80B586B000AFF860B9607A60002355
:1016D0007B6109E0BB685A1CBA601B781846AFF3FF
:1016E00000807B6901337B617A697B689A42F1DB18
:1016F0007B6818461837BD4680BD80B483B000AF04
:1017000078604FF0FF3318460C37BD465DF8047B18
:10171000704780B483B000AF786039603B684FF4A5
:1017200000525A60002318460C37BD465DF8047B12
:10173000704780B483B000AF7860012318460C373F
:10174000BD465DF8047B704780B485B000AFF8609B
:10175000B9607A60002318461437BD465DF8047BF3
:101760007047000080B586B000AF7860144A154B12
:10177000D31A7B617B693B61134B1B68002B02D141
:10178000114B124A1A60104B1A687B6813443A696D
:101790009A4207D211F05AF803460C221A604FF011
:1017A000FF3309E0084B1B68FB60074B1A687B6836
:1017B0001344054A1360FB6818461837BD4680BDC0
:1017C000000002200004000060020020105A0020E7
:1017D00080B400AF064BD3F88830054A43F4700359
:1017E000C2F8883000BFBD465DF8047B704700BF7B
:1017F00000ED00E080B58AB000AF786007F1140317
:1018000000221A605A609A60DA601A617B681B686D
:10181000194A93422CD100233B61184B5B6C174A49
:1018200043F010035364154B5B6C03F010033B61F2
:101830003B690023FB60114B1B6B104A43F0010313
:1018400013630E4B1B6B03F00103FB60FB684FF44B
:10185000C0637B610223BB610023FB6103233B6206
:1018600007237B6207F114031946054800F0BAF913
:1018700000BF2837BD4680BD00100140003802403F
:101880000000024080B485B000AF78607B681B68C0
:101890000B4A93420DD10023FB600A4B1B6C094A93
:1018A00043F400631364074B1B6C03F40063FB6099
:1018B000FB6800BF1437BD465DF8047B704700BF6E
:1018C000002C004000380240DFF834D00D480E49AB
:1018D0000E4A002302E0D458C4500433C4188C428A
:1018E000F9D30B4A0B4C002301E013600432A242EF
:1018F000FBD3FFF76DFF11F0A5F8FFF719FC704758
:10190000000002200000002024020020B4BA0108D8
:1019100024020020105A0020FEE7000080B500AF2E
:101920000E4B1B680D4A43F4007313600B4B1B688E
:101930000A4A43F480631360084B1B68074A43F468
:1019400080731360032000F013F90F20FFF700FEEF
:10195000FFF7D2FD0023184680BD00BF003C0240C7
:1019600080B400AF064B1B781A46064B1B68134425
:10197000044A136000BFBD465DF8047B704700BF9A
:1019800008000020B459002080B400AF034B1B684E
:101990001846BD465DF8047B704700BFB45900206F
:1019A00080B584B000AF7860FFF7EEFFB8607B6869
:1019B000FB60FB68B3F1FF3F05D00A4B1B781A466A
:1019C000FB681344FB6000BFFFF7DEFF0246BB6805
:1019D000D31AFA689A42F7D800BF00BF1037BD4645
:1019E00080BD00BF0800002080B485B000AF7860E3
:1019F0007B6803F00703FB600C4BDB68BB60BA68D5
:101A00004FF6FF031340BB60FB681A02BB68134329
:101A100043F0BF6343F40033BB60044ABB68D36048
:101A200000BF1437BD465DF8047B704700ED00E051
:101A300080B400AF044BDB681B0A03F007031846B1
:101A4000BD465DF8047B704700ED00E080B483B0D4
:101A500000AF0346FB7197F90730002B0BDBFB79D6
:101A600003F01F02074997F907305B09012000FACC
:101A700002F241F8232000BF0C37BD465DF8047B1D
:101A8000704700BF00E100E080B483B000AF0346C0
:101A90003960FB7197F90730002B0ADB3B68DAB23B
:101AA0000C4997F907301201D2B20B4483F8002396
:101AB0000AE03B68DAB20849FB7903F00F03043B04
:101AC0001201D2B20B441A7600BF0C37BD465DF846
:101AD000047B704700E100E000ED00E080B489B0D5
:101AE00000AFF860B9607A60FB6803F00703FB6140
:101AF000FB69C3F10703042B28BF0423BB61FB6907
:101B00000433062B02D9FB69033B00E000237B6111
:101B10004FF0FF32BB6902FA03F3DA43BB681A40A5
:101B20007B699A404FF0FF317B6901FA03F3D94397
:101B30007B680B40134318462437BD465DF8047B91
:101B40007047000080B400AFBFF34F8F00BF064B5B
:101B5000DB6803F4E0620449044B1343CB60BFF33A
:101B60004F8F00BF00BFFDE700ED00E00400FA0565
:101B700080B582B000AF78607868FFF735FF00BFAE
:101B80000837BD4680BD80B586B000AF0346B9605A
:101B90007A60FB7300237B61FFF74AFF78617A6804
:101BA000B9687869FFF79AFF024697F90F30114636
:101BB0001846FFF769FF00BF1837BD4680BD80B5E6
:101BC00082B000AF0346FB7197F907301846FFF764
:101BD0003DFF00BF0837BD4680BD80B500AFFFF7B1
:101BE000B1FF000080B489B000AF78603960002395
:101BF0007B6100233B610023BB610023FB6165E146
:101C00000122FB6902FA03F37B613B681B687A6976
:101C100013403B613A697B699A4240F054813B68CA
:101C20005B6803F00303012B05D03B685B6803F09E
:101C30000303022B30D17B689B68BB61FB695B00AF
:101C4000032202FA03F3DB43BA691340BB613B682A
:101C5000DA68FB695B0002FA03F3BA691343BB61FC
:101C60007B68BA699A607B685B68BB610122FB692B
:101C700002FA03F3DB43BA691340BB613B685B685C
:101C80001B0903F00102FB6902FA03F3BA6913436B
:101C9000BB617B68BA695A603B685B6803F0030309
:101CA000032B17D07B68DB68BB61FB695B000322F9
:101CB00002FA03F3DB43BA691340BB613B689A68DD
:101CC000FB695B0002FA03F3BA691343BB617B68EB
:101CD000BA69DA603B685B6803F00303022B23D127
:101CE000FB69DA087B68083253F82230BB61FB6974
:101CF00003F007039B000F2202FA03F3DB43BA69E8
:101D00001340BB613B681A69FB6903F007039B0042
:101D100002FA03F3BA691343BB61FB69DA087B6813
:101D20000832B96943F822107B681B68BB61FB6904
:101D30005B00032202FA03F3DB43BA691340BB6181
:101D40003B685B6803F00302FB695B0002FA03F384
:101D5000BA691343BB617B68BA691A603B685B6808
:101D600003F44033002B00F0AE800023FB605D4B9A
:101D70005B6C5C4A43F4804353645A4B5B6C03F4E2
:101D80008043FB60FB68584AFB699B08023352F8AA
:101D90002330BB61FB6903F003039B000F2202FAAF
:101DA00003F3DB43BA691340BB617B684F4A93423C
:101DB00025D07B684E4A93421FD07B684D4A9342A0
:101DC00019D07B684C4A934213D07B684B4A9342AC
:101DD0000DD07B684A4A934207D07B68494A9342B8
:101DE00001D106230CE007230AE0052308E00423C1
:101DF00006E0032304E0022302E0012300E00023C5
:101E0000FA6902F0030292009340BA691343BB617E
:101E10003549FB699B080233BA6941F823203A4BE4
:101E20001B68BB613B69DB43BA691340BB613B681C
:101E30005B6803F48033002B03D0BA693B6913431A
:101E4000BB61314ABB6913602F4B5B68BB613B6967
:101E5000DB43BA691340BB613B685B6803F4003342
:101E6000002B03D0BA693B691343BB61264ABB69A7
:101E70005360254B9B68BB613B69DB43BA691340E8
:101E8000BB613B685B6803F48013002B03D0BA6925
:101E90003B691343BB611C4ABB6993601A4BDB6807
:101EA000BB613B69DB43BA691340BB613B685B685C
:101EB00003F40013002B03D0BA693B691343BB61E1
:101EC000114ABB69D360FB690133FB61FB690F2BCE
:101ED0007FF696AE00BF00BF2437BD465DF8047B99
:101EE000704700BF00380240003801400000024047
:101EF0000004024000080240000C024000100240B2
:101F00000014024000180240003C014080B485B03B
:101F100000AF78600B467B807B681A697B88134032
:101F2000002B02D00123FB7301E00023FB73FB7B3A
:101F300018461437BD465DF8047B704780B483B003
:101F400000AF78600B467B8013467B707B78002B5C
:101F500003D07A887B689A6103E07B881A047B68E7
:101F60009A6100BF0C37BD465DF8047B704780B4B2
:101F700085B000AF78600B467B807B685B69FB6057
:101F80007A88FB6813401A04FB68D9437B880B40AE
:101F90001A437B689A6100BF1437BD465DF8047B25
:101FA0007047000080B582B000AF00237B60002343
:101FB0003B60204B1B6C1F4A43F0805313641D4B46
:101FC0001B6C03F080533B603B681B4B01221A6083
:101FD000FFF7DAFC786009E0FFF7D6FC02467B6881
:101FE000D31AB3F57A7F01D903231FE0134B5B6843
:101FF00003F48033B3F5803FEED1114B01221A6018
:10200000FFF7C2FC786009E0FFF7BEFC02467B6880
:10201000D31AB3F57A7F01D9032307E0074B5B6836
:1020200003F40033B3F5003FEED100231846083720
:10203000BD4680BD0038024040000E4200700040A6
:1020400044000E4280B584B000AF786039607B6890
:10205000002B01D10123CCE0684B1B6803F00F0378
:102060003A689A420CD9654B3A68D2B21A70634BFF
:102070001B6803F00F033A689A4201D00123B8E0CD
:102080007B681B6803F00203002B20D07B681B6871
:1020900003F00403002B05D0594B9B68584A43F4C6
:1020A000E05393607B681B6803F00803002B05D0A6
:1020B000534B9B68524A43F460439360504B9B6878
:1020C00023F0F0027B689B684D4913438B607B686B
:1020D0001B6803F00103002B44D07B685B68012B75
:1020E00007D1474B1B6803F40033002B19D10123A0
:1020F0007FE07B685B68022B03D07B685B68032B07
:1021000007D13F4B1B6803F00073002B09D101235B
:102110006FE03B4B1B6803F00203002B01D101234E
:1021200067E0374B9B6823F003027B685B683449A8
:1021300013438B60FFF728FCF8600AE0FFF724FCEC
:102140000246FB68D31A41F28832934201D9032335
:102150004FE02B4B9B6803F00C027B685B689B0095
:102160009A42EBD1254B1B6803F00F033A689A4261
:102170000CD2224B3A68D2B21A70204B1B6803F083
:102180000F033A689A4201D0012332E07B681B6852
:1021900003F00403002B08D0194B9B6823F4E05292
:1021A0007B68DB68164913438B607B681B6803F010
:1021B0000803002B09D0124B9B6823F460427B6814
:1021C0001B69DB000E4913438B6000F087F8024661
:1021D0000B4B9B681B0903F00F030A49CB5C22FAE7
:1021E00003F3094A1360094B1B681846FFF7B0F95F
:1021F000002318461037BD4680BD00BF003C02409A
:10220000003802406C9B0108000000200400002000
:1022100080B400AF034B1B681846BD465DF8047BD5
:10222000704700BF0000002080B500AFFFF7F0FF4F
:102230000246054B9B689B0A03F007030349CB5CEE
:1022400022FA03F3184680BD003802407C9B010847
:1022500080B500AFFFF7DCFF0246054B9B685B0BC8
:1022600003F007030349CB5C22FA03F3184680BD51
:10227000003802407C9B010880B483B000AF7860D6
:1022800039607B680F221A60124B9B6803F00302CF
:102290007B685A600F4B9B6803F0F0027B689A6082
:1022A0000C4B9B6803F4E0527B68DA60094B9B6837
:1022B000DB0803F4E0527B681A61074B1B6803F0EC
:1022C0000F023B681A6000BF0C37BD465DF8047B07
:1022D000704700BF00380240003C02402DE9B04F7B
:1022E00088B000AF00237B610023FB6100233B61CA
:1022F0000023FB600023BB61CE4B9B6803F00C0303
:102300000C2B00F28D8101A252F823F0412300082A
:10231000212600082126000821260008472300085E
:102320002126000821260008212600084D23000848
:10233000212600082126000821260008C1240008C3
:10234000BD4BBB616FE1BD4BBB616CE1B94B5B68E1
:1023500003F03F037B61B74B5B6803F48003002B02
:1023600053D0B44B5B689B091A464FF0000340F210
:10237000FF104FF0000102EA00043C600B407B605C
:10238000D7E90045204629464FF000024FF00003F0
:102390004B0143EAD0634201104619462346C01A56
:1023A0002B4661EB03014FF000024FF000038B015D
:1023B00043EA90638201121A63EB01034FF00000BD
:1023C0004FF00001D90041EA5271D00002460B469D
:1023D00021465218294643EB01010B464FF00000FD
:1023E0004FF00001590241EAD251500202460B4619
:1023F000104619467B691A464FF00003FEF774FC3D
:1024000002460B461346FB614CE08A4B5B689B0916
:102410001A464FF0000340F2FF104FF0000102EAAD
:10242000000A03EA010B504659464FF000024FF0F4
:1024300000034B0143EAD063420110461946B0EB5A
:102440000A0061EB0B014FF000024FF000038B011B
:1024500043EA90638201121A63EB01034FF000001C
:102460004FF00001D90041EA5271D00002460B46FC
:1024700012EB0A0243EB0B034FF000004FF0000198
:10248000990241EA9251900202460B4610461946C3
:102490007B691A464FF00003FEF726FC02460B4606
:1024A0001346FB61634B5B681B0C03F003030133B2
:1024B0005B003B61FA693B69B2FBF3F3BB61B2E0DD
:1024C0005C4B5B6803F03F037B615A4B5B6803F432
:1024D0008003002B4DD0574B5B689B091A464FF089
:1024E000000340F2FF104FF0000102EA000803EA87
:1024F0000109404649464FF000024FF000034B01EE
:1025000043EAD063420110461946B0EB080061EB84
:1025100009014FF000024FF000038B0143EA906382
:102520008201121A63EB01034FF000004FF000012B
:10253000D90041EA5271D00002460B4612EB080264
:1025400043EB09034FF000004FF00001590241EA4C
:10255000D251500202460B46104619467B691A4674
:102560004FF00003FEF7C0FB02460B461346FB612B
:102570004AE0304B5B689B091A464FF0000340F27B
:10258000FF104FF0000102EA000403EA01052046B3
:1025900029464FF000024FF000034B0143EAD0639D
:1025A000420110461946001B61EB05014FF0000285
:1025B0004FF000038B0143EA90638201121A63EB30
:1025C00001034FF000004FF00001D90041EA5271C1
:1025D000D00002460B46121945EB03034FF00000F2
:1025E0004FF00001990241EA9251900202460B46D7
:1025F000104619467B691A464FF00003FEF774FB3C
:1026000002460B461346FB610A4B5B681B0F03F047
:102610000703FB60FA69FB68B2FBF3F3BB6102E0FE
:10262000054BBB6100BFBB6918462037BD46BDE8FE
:10263000B08F00BF003802400024F40000127A007E
:1026400080B586B000AF78607B68002B01D1012394
:102650008DE27B681B6803F00103002B00F0838090
:10266000944B9B6803F00C03042B19D0914B9B688F
:1026700003F00C03082B06D18E4B5B6803F4800338
:10268000B3F5800F0CD08B4B9B6803F00C030C2B25
:1026900012D1884B5B6803F48003B3F5800F0BD134
:1026A000844B1B6803F40033002B5BD07B685B68B2
:1026B000002B57D101235AE27B685B68B3F5803F5A
:1026C00006D17C4B1B687B4A43F4803313601DE0CA
:1026D0007B685B68B3F5A02F0CD1764B1B68754AFD
:1026E00043F480231360734B1B68724A43F48033B6
:1026F00013600BE06F4B1B686E4A23F4803313604A
:102700006C4B1B686B4A23F4802313607B685B6807
:10271000002B13D0FFF738F9386108E0FFF734F9E0
:1027200002463B69D31A642B01D903231FE2614B94
:102730001B6803F40033002BF0D014E0FFF724F9FA
:10274000386108E0FFF720F902463B69D31A642B91
:1027500001D903230BE2574B1B6803F40033002B12
:10276000F0D100E000BF7B681B6803F00203002B80
:102770006FD0504B9B6803F00C03002B17D04D4BD0
:102780009B6803F00C03082B05D14A4B5B6803F4EC
:102790008003002B0BD0474B9B6803F00C030C2BE2
:1027A0001CD1444B5B6803F48003002B16D1414BD2
:1027B0001B6803F00203002B05D07B68DB68012B4C
:1027C00001D00123D3E13B4B1B6823F0F8027B6867
:1027D0001B69DB00374913430B603AE07B68DB6819
:1027E000002B20D0344B01221A60FFF7CDF838615E
:1027F00008E0FFF7C9F802463B69D31A022B01D95A
:102800000323B4E12B4B1B6803F00203002BF0D031
:10281000284B1B6823F0F8027B681B69DB00254905
:1028200013430B6015E0244B00221A60FFF7ACF84D
:10283000386108E0FFF7A8F802463B69D31A022B7B
:1028400001D9032393E11B4B1B6803F00203002B08
:10285000F0D17B681B6803F00803002B36D07B683F
:102860005B69002B16D0154B01221A60FFF78CF81C
:10287000386108E0FFF788F802463B69D31A022B5B
:1028800001D9032373E10B4B5B6F03F00203002BB1
:10289000F0D01BE0094B00221A60FFF775F8386191
:1028A0000EE0FFF771F802463B69D31A022B07D9F5
:1028B00003235CE10038024000004742800E47429B
:1028C0008A4B5B6F03F00203002BEAD17B681B6825
:1028D00003F00403002B00F097800023FB75834B6B
:1028E0001B6C03F08053002B0FD10023BB607F4B88
:1028F0001B6C7E4A43F0805313647C4B1B6C03F0CB
:102900008053BB60BB680123FB75794B1B6803F4E4
:102910008073002B18D1764B1B68754A43F4807383
:102920001360FFF731F8386108E0FFF72DF8024631
:102930003B69D31A022B01D9032318E16C4B1B68A6
:1029400003F48073002BF0D07B689B68012B06D1C9
:10295000664B1B6F654A43F0010313671CE07B68FD
:102960009B68052B0CD1614B1B6F604A43F004033D
:1029700013675E4B1B6F5D4A43F0010313670BE067
:102980005A4B1B6F594A23F001031367574B1B6FB8
:10299000564A23F0040313677B689B68002B15D00D
:1029A000FEF7F2FF38610AE0FEF7EEFF02463B69F0
:1029B000D31A41F28832934201D90323D7E04B4B1B
:1029C0001B6F03F00203002BEED014E0FEF7DCFFD8
:1029D00038610AE0FEF7D8FF02463B69D31A41F29C
:1029E0008832934201D90323C1E0404B1B6F03F0AF
:1029F0000203002BEED1FB7D012B05D13B4B1B6C61
:102A00003A4A23F0805313647B689B69002B00F0E3
:102A1000AD80364B9B6803F00C03082B60D07B68BD
:102A20009B69022B45D1334B00221A60FEF7ACFFA5
:102A3000386108E0FEF7A8FF02463B69D31A022B73
:102A400001D9032393E0294B1B6803F00073002B8B
:102A5000F0D17B68DA697B681B6A1A437B685B6A22
:102A60009B011A437B689B6A5B08013B1B041A436A
:102A70007B68DB6A1B061A437B681B6B1B071B49C1
:102A800013434B601B4B01221A60FEF77DFF386138
:102A900008E0FEF779FF02463B69D31A022B01D901
:102AA000032364E0114B1B6803F00073002BF0D08C
:102AB0005CE0104B00221A60FEF766FF386108E008
:102AC000FEF762FF02463B69D31A022B01D90323AA
:102AD0004DE0064B1B6803F00073002BF0D145E07E
:102AE0007B689B69012B07D1012340E0003802403D
:102AF00000700040600047421F4B5B68FB607B68D2
:102B00009B69012B30D0FB6803F480027B68DB6992
:102B10009A4229D1FB6803F03F027B681B6A9A4204
:102B200022D1FA6847F6C07313407A68526A92015C
:102B3000934219D1FB6803F440327B689B6A5B08BF
:102B4000013B1B049A420FD1FB6803F070627B6863
:102B5000DB6A1B069A4207D1FB6803F0E0427B6800
:102B60001B6B1B079A4201D0012300E0002318468B
:102B70001837BD4680BD00BF0038024080B582B026
:102B800000AF78607B68002B01D101237BE07B687C
:102B90005B6A002B08D17B685B68B3F5827F09D044
:102BA0007B680022DA6105E07B6800221A617B689D
:102BB00000225A617B6800229A627B6893F8513048
:102BC000DBB2002B06D17B68002283F850207868A6
:102BD000FEF787FC7B68022283F851207B681B6824
:102BE0001A687B681B6822F040021A607B685B6889
:102BF00003F482727B689B6803F404431A437B6886
:102C0000DB6803F400631A437B681B6903F002036B
:102C10001A437B685B6903F001031A437B689B6975
:102C200003F400731A437B68DB6903F038031A432B
:102C30007B681B6A03F0800342EA03017B689B6A9E
:102C400003F400527B681B680A431A607B689B6927
:102C50001B0C03F004017B685B6A03F010027B68C5
:102C60001B680A435A607B681B68DA697B681B68CB
:102C700022F40062DA617B6800225A657B680122D7
:102C800083F85120002318460837BD4680BD80B523
:102C900088B000AFF860B9603B601346FB8000234A
:102CA000FB77FB6893F85030012B01D1022326E11A
:102CB000FB68012283F85020FEF766FEB861FB88AE
:102CC000FB82FB6893F85130DBB2012B02D0022368
:102CD000FB770BE1BB68002B02D0FB88002B02D1F5
:102CE0000123FB7702E1FB68032283F85120FB6894
:102CF00000225A65FB68BA681A63FB68FA889A86EC
:102D0000FB68FA88DA86FB6800229A63FB68002277
:102D10009A87FB680022DA87FB6800225A64FB6806
:102D200000221A64FB689B68B3F5004F0FD1FB6863
:102D30001B681A68FB681B6822F040021A60FB6877
:102D40001B681A68FB681B6842F480421A60FB68C3
:102D50001B681B6803F04003402B07D0FB681B680F
:102D60001A68FB681B6842F040021A60FB68DB6867
:102D7000B3F5006F4BD1FB685B68002B02D0FB8A78
:102D8000012B3ED1FB681B6B1A88FB681B68DA605D
:102D9000FB681B6B9A1CFB681A63FB68DB8E9BB29B
:102DA000013B9AB2FB68DA862BE0FB681B689B68E4
:102DB00003F00203022B12D1FB681B6B1A88FB681D
:102DC0001B68DA60FB681B6B9A1CFB681A63FB6864
:102DD000DB8E9BB2013B9AB2FB68DA8611E0FEF70C
:102DE000D3FD0246BB69D31A3A689A4203D83B68BE
:102DF000B3F1FF3F02D13B68002B02D10323FB77E5
:102E000074E0FB68DB8E9BB2002BCED14CE0FB68FC
:102E10005B68002B02D0FB8A012B40D1FB681A6B48
:102E2000FB681B680C3312781A70FB681B6B5A1C0A
:102E3000FB681A63FB68DB8E9BB2013B9AB2FB68AE
:102E4000DA862CE0FB681B689B6803F00203022B08
:102E500013D1FB681A6BFB681B680C3312781A706D
:102E6000FB681B6B5A1CFB681A63FB68DB8E9BB20A
:102E7000013B9AB2FB68DA8611E0FEF785FD024657
:102E8000BB69D31A3A689A4203D83B68B3F1FF3F53
:102E900002D13B68002B02D10323FB7726E0FB68BD
:102EA000DB8E9BB2002BCDD1BA693968F86800F08F
:102EB000CBFB0346002B02D0FB6820225A65FB683F
:102EC0009B68002B0AD100233B61FB681B68DB6811
:102ED0003B61FB681B689B683B613B69FB685B6D02
:102EE000002B02D00123FB7700E000BFFB6801222A
:102EF00083F85120FB68002283F85020FB7F18469E
:102F00002037BD4680BD80B588B002AFF860B9609B
:102F10003B601346FB800023FB75FB685B68B3F5E1
:102F2000827F12D1FB689B68002B0ED1FB680422C4
:102F300083F85120FA883B6800931346BA68B96851
:102F4000F86800F0F1F80346EAE0FB6893F85030C7
:102F5000012B01D10223E3E0FB68012283F850201A
:102F6000FEF712FD3861FB6893F85130DBB2012B9C
:102F700002D00223FB75CAE0BB68002B02D0FB889D
:102F8000002B02D10123FB75C1E0FB68042283F80A
:102F90005120FB6800225A65FB68BA689A63FB6897
:102FA000FA889A87FB68FA88DA87FB6800221A6336
:102FB000FB6800229A86FB680022DA86FB68002202
:102FC0001A64FB6800225A64FB689B68B3F5004FE3
:102FD0000FD1FB681B681A68FB681B6822F040026F
:102FE0001A60FB681B681A68FB681B6822F4804241
:102FF0001A60FB681B681B6803F04003402B07D076
:10300000FB681B681A68FB681B6842F040021A6084
:10301000FB68DB68002B62D12EE0FB681B689B68B5
:1030200003F00103012B15D1FB681B6803F10C02AF
:10303000FB689B6B1278D2B21A70FB689B6B5A1CB0
:10304000FB689A63FB68DB8F9BB2013B9AB2FB681B
:10305000DA8711E0FEF798FC02463B69D31A3A681A
:103060009A4203D83B68B3F1FF3F02D13B68002B83
:1030700002D10323FB754AE0FB68DB8F9BB2002B78
:10308000CBD131E0FB681B689B6803F00103012B87
:1030900013D1FB681B68DA68FB689B6B92B21A80DD
:1030A000FB689B6B9A1CFB689A63FB68DB8F9BB287
:1030B000013B9AB2FB68DA8711E0FEF765FC024635
:1030C0003B69D31A3A689A4203D83B68B3F1FF3F91
:1030D00002D13B68002B02D10323FB7517E0FB688C
:1030E000DB8F9BB2002BCDD13A693968F86800F0CC
:1030F00045FA0346002B02D0FB6820225A65FB6884
:103100005B6D002B02D00123FB7500E000BFFB6864
:10311000012283F85120FB68002283F85020FB7DB8
:1031200018461837BD4680BD80B58CB000AFF8603A
:10313000B9607A607B800123FB62002387F82B3023
:10314000FB6893F85030012B01D102238AE1FB6820
:10315000012283F85020FEF717FC7862FB6893F891
:10316000513087F82330FB685B68FB617B887B8389
:1031700097F82330012B0FD0FB69B3F5827F07D17D
:10318000FB689B68002B03D197F82330042B03D0F6
:10319000022387F82B305BE1BB68002B05D07B68EE
:1031A000002B02D07B88002B03D1012387F82B3022
:1031B0004EE1FB6893F85130DBB2042B03D0FB687F
:1031C000052283F85120FB6800225A65FB687A6863
:1031D0009A63FB687A88DA87FB687A889A87FB6843
:1031E000BA681A63FB687A88DA86FB687A889A86F6
:1031F000FB6800221A64FB6800225A64FB681B68A3
:103200001B6803F04003402B07D0FB681B681A685B
:10321000FB681B6842F040021A60FB68DB68B3F58C
:10322000006F78D1FB685B68002B02D07B8B012B91
:1032300066D1FB681B6B1A88FB681B68DA60FB6849
:103240001B6B9A1CFB681A63FB68DB8E9BB2013B0D
:103250009AB2FB68DA8653E0FB681B689B6803F050
:103260000203022B1BD1FB68DB8E9BB2002B16D016
:10327000FB6A012B13D1FB681B6B1A88FB681B6868
:10328000DA60FB681B6B9A1CFB681A63FB68DB8EB9
:103290009BB2013B9AB2FB68DA860023FB62FB68B3
:1032A0001B689B6803F00103012B19D1FB68DB8FBE
:1032B0009BB2002B14D0FB681B68DA68FB689B6B21
:1032C00092B21A80FB689B6B9A1CFB689A63FB683E
:1032D000DB8F9BB2013B9AB2FB68DA870123FB626A
:1032E000FEF752FB02467B6AD31ABA6B9A4207D8A2
:1032F000BB6BB3F1FF3F03D0032387F82B30A7E06C
:10330000FB68DB8E9BB2002BA6D1FB68DB8F9BB2E8
:10331000002BA1D17CE0FB685B68002B02D07B8B8B
:10332000012B6BD1FB681A6BFB681B680C3312789E
:103330001A70FB681B6B5A1CFB681A63FB68DB8EF8
:103340009BB2013B9AB2FB68DA8657E0FB681B68C8
:103350009B6803F00203022B1CD1FB68DB8E9BB23F
:10336000002B17D0FB6A012B14D1FB681A6BFB688A
:103370001B680C3312781A70FB681B6B5A1CFB68B5
:103380001A63FB68DB8E9BB2013B9AB2FB68DA865C
:103390000023FB62FB681B689B6803F00103012BA1
:1033A00019D1FB68DB8F9BB2002B14D0FB681B6824
:1033B000DA68FB689B6BD2B21A70FB689B6B5A1C75
:1033C000FB689A63FB68DB8F9BB2013B9AB2FB6898
:1033D000DA870123FB62FEF7D7FA02467B6AD31A2B
:1033E000BA6B9A4203D8BB6BB3F1FF3F02D1BB6B00
:1033F000002B03D1032387F82B3029E0FB68DB8EF9
:103400009BB2002BA2D1FB68DB8F9BB2002B9DD11E
:103410007A6AB96BF86800F017F90346002B06D0FA
:10342000012387F82B30FB6820225A6510E0FB68E7
:103430009B68002B0BD100237B61FB681B68DB685A
:103440007B61FB681B689B687B617B6900E000BF58
:10345000FB68012283F85120FB68002283F850208A
:1034600097F82B3018463037BD4680BD80B588B000
:1034700000AFF860B9603B601346FB71FEF784FA59
:103480000246BB6A9B1A3A681344FB61FEF77CFA5A
:10349000B861394B1B685B011B0DFA6902FB03F332
:1034A0007B6154E03B68B3F1FF3F50D0FEF76CFA0C
:1034B0000246BB69D31AFA699A4202D9FB69002B0A
:1034C0003DD1FB681B685A68FB681B6822F0E0026C
:1034D0005A60FB685B68B3F5827F11D1FB689B681B
:1034E000B3F5004F04D0FB689B68B3F5806F07D13C
:1034F000FB681B681A68FB681B6822F040021A60B0
:10350000FB689B6AB3F5005F0FD1FB681B681A6804
:10351000FB681B6822F400521A60FB681B681A687B
:10352000FB681B6842F400521A60FB68012283F8B2
:103530005120FB68002283F85020032317E07B69A9
:10354000002B01D10023FB617B69013B7B61FB68A0
:103550001B689A68BB681340BA689A420CBF012383
:103560000023DBB21A46FB799A429BD1002318460E
:103570002037BD4680BD00BF0000002080B586B06A
:1035800002AFF860B9607A60FB685B68B3F5827F70
:1035900011D1FB689B68B3F5004F04D0FB689B68B2
:1035A000B3F5806F07D1FB681B681A68FB681B685E
:1035B00022F040021A60FB685B68B3F5827F2AD173
:1035C000FB689B68B3F5806F12D07B680093BB6883
:1035D00000228021F868FFF749FF0346002B2DD019
:1035E000FB685B6D43F02002FB685A65032326E00D
:1035F0007B680093BB6800220121F868FFF736FF63
:103600000346002B1AD0FB685B6D43F02002FB6879
:103610005A65032313E07B680093BB6800220121F5
:10362000F868FFF723FF0346002B07D0FB685B6DAC
:1036300043F02002FB685A65032300E0002318468C
:103640001037BD4680BD000080B588B002AFF8607D
:10365000B9607A601B4B1B681B4AA2FB03235B0DFE
:103660004FF47A7202FB03F37B61FB685B68B3F58E
:10367000827F12D17B680093BB6800228021F868AA
:10368000FFF7F4FE0346002B16D0FB685B6D43F09A
:103690002002FB685A6503230FE07B69002B0AD0E8
:1036A0007B69013B7B61FB681B689B6803F08003BF
:1036B000802BF2D000E000BF002318461837BD462B
:1036C00080BD00BF00000020819F5E1680B582B0E3
:1036D00000AF78607B68002B01D1012341E07B685B
:1036E00093F83D30DBB2002B06D17B68002283F8D3
:1036F0003C20786800F039F87B68022283F83D208E
:103700007B681A687B6804331946104600F02AFE6D
:103710007B68012283F846207B68012283F83E20E3
:103720007B68012283F83F207B68012283F84020D8
:103730007B68012283F841207B68012283F84220C4
:103740007B68012283F843207B68012283F84420B0
:103750007B68012283F845207B68012283F83D20A5
:10376000002318460837BD4680BD80B483B000AF43
:10377000786000BF0C37BD465DF8047B70470000E1
:1037800080B485B000AF78607B6893F83D30DBB2E1
:10379000012B01D0012346E07B68022283F83D2003
:1037A0007B681B68234A934222D07B681B68B3F175
:1037B000804F1DD07B681B681F4A934218D07B68DE
:1037C0001B681E4A934213D07B681B681C4A9342B5
:1037D0000ED07B681B681B4A934209D07B681B682C
:1037E000194A934204D07B681B68184A934211D14E
:1037F0007B681B689B6803F00703FB60FB68062B74
:1038000010D07B681B681A687B681B6842F0010255
:103810001A6007E07B681B681A687B681B6842F0C7
:1038200001021A60002318461437BD465DF8047B78
:10383000704700BF00000140000400400008004045
:10384000000C00400004014000400140001800400E
:1038500080B485B000AF78607B6893F83D30DBB210
:10386000012B01D001234EE07B68022283F83D202A
:103870007B681B68DA687B681B6842F00102DA60CB
:103880007B681B68234A934222D07B681B68B3F194
:10389000804F1DD07B681B681F4A934218D07B68FD
:1038A0001B681E4A934213D07B681B681C4A9342D4
:1038B0000ED07B681B681B4A934209D07B681B684B
:1038C000194A934204D07B681B68184A934211D16D
:1038D0007B681B689B6803F00703FB60FB68062B93
:1038E00010D07B681B681A687B681B6842F0010275
:1038F0001A6007E07B681B681A687B681B6842F0E7
:1039000001021A60002318461437BD465DF8047B97
:10391000704700BF00000140000400400008004064
:10392000000C00400004014000400140001800402D
:1039300080B582B000AF78607B68002B01D1012395
:1039400041E07B6893F83D30DBB2002B06D17B6809
:10395000002283F83C20786800F039F87B68022266
:1039600083F83D207B681A687B680433194610464B
:1039700000F0F8FC7B68012283F846207B68012276
:1039800083F83E207B68012283F83F207B68012278
:1039900083F840207B68012283F841207B68012264
:1039A00083F842207B68012283F843207B68012250
:1039B00083F844207B68012283F845207B6801223C
:1039C00083F83D20002318460837BD4680BD80B4EB
:1039D00083B000AF786000BF0C37BD465DF8047B54
:1039E0007047000080B584B000AF786039603B68F4
:1039F000002B09D17B6893F83E30DBB2012B14BF5A
:103A000001230023DBB222E03B68042B09D17B6851
:103A100093F83F30DBB2012B14BF01230023DBB24C
:103A200015E03B68082B09D17B6893F84030DBB286
:103A3000012B14BF01230023DBB208E07B6893F85D
:103A40004130DBB2012B14BF01230023DBB2002B7A
:103A500001D001237CE03B68002B04D17B6802226B
:103A600083F83E2013E03B68042B04D17B680222DC
:103A700083F83F200BE03B68082B04D17B680222CF
:103A800083F8402003E07B68022283F841207B68B2
:103A90001B6801223968184600F04EFF7B681B68DE
:103AA0002D4A934204D07B681B682C4A934201D173
:103AB000012300E00023002B07D07B681B685A6CB1
:103AC0007B681B6842F400425A647B681B68224A88
:103AD000934222D07B681B68B3F1804F1DD07B6876
:103AE0001B681F4A934218D07B681B681D4A93428B
:103AF00013D07B681B681C4A93420ED07B681B68FE
:103B0000164A934209D07B681B68184A934204D036
:103B10007B681B68164A934211D17B681B689B68BF
:103B200003F00703FB60FB68062B10D07B681B6863
:103B30001A687B681B6842F001021A6007E07B6824
:103B40001B681A687B681B6842F001021A60002338
:103B500018461037BD4680BD0000014000040140FA
:103B60000004004000080040000C004000400140FC
:103B70000018004080B586B000AF786039607B687F
:103B8000002B01D1012397E07B6893F83D30DBB235
:103B9000002B06D17B68002283F83C20786800F077
:103BA0008FF87B68022283F83D207B681B689B6846
:103BB0007A68126823F4804323F0070393607B68DC
:103BC0001A687B6804331946104600F0CBFB7B680B
:103BD0001B689B687B617B681B689B693B617B689A
:103BE0001B681B6AFB603B681B687A6913437B6137
:103BF0003B6923F4407323F003033B613B689A68FD
:103C00003B689B691B0213433A6913433B613B6961
:103C100023F4406323F00C033B613B6923F47043BE
:103C200023F0F0033B613B68DA683B68DB691B0209
:103C300013433A6913433B613B681B691A013B68B4
:103C40001B6A1B0313433A6913433B61FB6823F070
:103C50002203FB60FB6823F08803FB603B685A6823
:103C60003B685B691B011343FA681343FB607B6885
:103C70001B687A699A607B681B683A699A617B68FD
:103C80001B68FA681A627B68012283F846207B6809
:103C9000012283F83E207B68012283F83F207B6865
:103CA000012283F842207B68012283F843207B684D
:103CB000012283F83D20002318461837BD4680BDF9
:103CC00080B483B000AF786000BF0C37BD465DF8AC
:103CD000047B704780B584B000AF786039607B6842
:103CE00093F83E30FB737B6893F83F30BB737B687F
:103CF00093F842307B737B6893F843303B733B68A7
:103D0000002B10D1FB7B012B02D17B7B012B01D03F
:103D1000012369E07B68022283F83E207B6802224F
:103D200083F8422031E03B68042B10D1BB7B012B90
:103D300002D13B7B012B01D0012355E07B6802229D
:103D400083F83F207B68022283F843201DE0FB7B41
:103D5000012B08D1BB7B012B05D17B7B012B02D131
:103D60003B7B012B01D001233EE07B68022283F8DC
:103D70003E207B68022283F83F207B68022283F882
:103D800042207B68022283F843203B68002B03D04B
:103D90003B68042B08D00FE07B681B6801220021E0
:103DA000184600F0C9FD16E07B681B68012204215B
:103DB000184600F0C1FD0EE07B681B68012200215F
:103DC000184600F0B9FD7B681B68012204211846E3
:103DD00000F0B2FD00BF7B681B681A687B681B6837
:103DE00042F001021A60002318461037BD4680BD1C
:103DF00080B582B000AF78607B681B681B6903F0F8
:103E00000203022B22D17B681B68DB6803F00203EC
:103E1000022B1BD17B681B686FF002021A617B6862
:103E200001221A777B681B689B6903F00303002B50
:103E300003D0786800F077FA05E0786800F069FA56
:103E4000786800F07AFA7B6800221A777B681B6832
:103E50001B6903F00403042B22D17B681B68DB6819
:103E600003F00403042B1BD17B681B686FF0040272
:103E70001A617B6802221A777B681B689B6903F4CE
:103E80004073002B03D0786800F04DFA05E07868A5
:103E900000F03FFA786800F050FA7B6800221A7749
:103EA0007B681B681B6903F00803082B22D17B6821
:103EB0001B68DB6803F00803082B1BD17B681B68B9
:103EC0006FF008021A617B6804221A777B681B680E
:103ED000DB6903F00303002B03D0786800F023FABA
:103EE00005E0786800F015FA786800F026FA7B683B
:103EF00000221A777B681B681B6903F01003102BE4
:103F000022D17B681B68DB6803F01003102B1BD1E8
:103F10007B681B686FF010021A617B6808221A77B1
:103F20007B681B68DB6903F44073002B03D078685F
:103F300000F0F9F905E0786800F0EBF9786800F036
:103F4000FCF97B6800221A777B681B681B6903F009
:103F50000103012B0ED17B681B68DB6803F00103B2
:103F6000012B07D17B681B686FF001021A6178682A
:103F7000FDF7A0FA7B681B681B6903F08003802BA8
:103F80000ED17B681B68DB6803F08003802B07D1B0
:103F90007B681B686FF080021A61786800F0FBFC98
:103FA0007B681B681B6903F04003402B0ED17B68C4
:103FB0001B68DB6803F04003402B07D17B681B685C
:103FC0006FF040021A61786800F0C1F97B681B68E5
:103FD0001B6903F02003202B0ED17B681B68DB6874
:103FE00003F02003202B07D17B681B686FF02002B1
:103FF0001A61786800F0C5FC00BF0837BD4680BD77
:1040000080B586B000AFF860B9607A600023FB75B8
:10401000FB6893F83C30012B01D10223AEE0FB6832
:10402000012283F83C207B680C2B00F29F8001A2C8
:1040300052F823F0694000086D4100086D41000806
:104040006D410008A94000086D4100086D4100085D
:104050006D410008EB4000086D4100086D4100080B
:104060006D4100082B410008FB681B68B9681846C1
:1040700000F018FAFB681B689A69FB681B6842F03D
:1040800008029A61FB681B689A69FB681B6822F04A
:1040900004029A61FB681B689969BB681A69FB682E
:1040A0001B680A439A6164E0FB681B68B96818469C
:1040B00000F068FAFB681B689A69FB681B6842F4A9
:1040C00000629A61FB681B689A69FB681B6822F4AE
:1040D00080629A61FB681B689969BB681B691A0258
:1040E000FB681B680A439A6143E0FB681B68B96878
:1040F000184600F0BDFAFB681B68DA69FB681B68AC
:1041000042F00802DA61FB681B68DA69FB681B6829
:1041100022F00402DA61FB681B68D969BB681A697E
:10412000FB681B680A43DA6123E0FB681B68B96817
:10413000184600F011FBFB681B68DA69FB681B6816
:1041400042F40062DA61FB681B68DA69FB681B688D
:1041500022F48062DA61FB681B68D969BB681B695D
:104160001A02FB681B680A43DA6102E00123FB754F
:1041700000BFFB68002283F83C20FB7D18461837FF
:10418000BD4680BD80B584B000AF78603960002343
:10419000FB737B6893F83C30012B01D10223B4E020
:1041A0007B68012283F83C207B68022283F83D2053
:1041B0007B681B689B68BB60BB6823F07703BB60B0
:1041C000BB6823F47F43BB607B681B68BA689A6056
:1041D0003B681B68B3F5005F3ED0B3F5005F00F2AB
:1041E0008780B3F5805F00F08680B3F5805F7FD86D
:1041F000702B1AD0702B7BD8602B50D0602B77D8C7
:10420000502B3CD0502B73D8402B58D0402B6FD81C
:10421000302B64D0302B6BD8202B60D0202B67D86C
:10422000002B5CD0102B5AD062E07B6818683B688A
:1042300099683B685A683B68DB6800F05DFB7B6807
:104240001B689B68BB60BB6843F07703BB607B68FF
:104250001B68BA689A604FE07B6818683B68996889
:104260003B685A683B68DB6800F046FB7B681B686C
:104270009A687B681B6842F480429A603CE07B68E5
:1042800018683B6859683B68DB681A4600F0BAFA60
:104290007B681B685021184600F013FB2CE07B68FC
:1042A00018683B6859683B68DB681A4600F0D9FA21
:1042B0007B681B686021184600F003FB1CE07B68EC
:1042C00018683B6859683B68DB681A4600F09AFA40
:1042D0007B681B684021184600F0F3FA0CE07B680D
:1042E0001A683B681B681946104600F0EAFA03E0BA
:1042F0000123FB7300E000BF7B68012283F83D20AF
:104300007B68002283F83C20FB7B18461037BD46B3
:1043100080BD80B483B000AF786000BF0C37BD466D
:104320005DF8047B704780B483B000AF786000BF55
:104330000C37BD465DF8047B704780B483B000AF96
:10434000786000BF0C37BD465DF8047B704780B4D1
:1043500083B000AF786000BF0C37BD465DF8047BCA
:104360007047000080B485B000AF786039607B682A
:104370001B68FB607B68404A934213D07B68B3F1B3
:10438000804F0FD07B683D4A93420BD07B683C4AFC
:10439000934207D07B683B4A934203D07B683A4AFA
:1043A000934208D1FB6823F07003FB603B685B68B5
:1043B000FA681343FB607B682F4A93422BD07B68DB
:1043C000B3F1804F27D07B682C4A934223D07B687F
:1043D0002B4A93421FD07B682A4A93421BD07B68AA
:1043E000294A934217D07B68284A934213D07B68AE
:1043F000274A93420FD07B68264A93420BD07B68B2
:10440000254A934207D07B68244A934203D07B68B5
:10441000234A934208D1FB6823F44073FB603B6856
:10442000DB68FA681343FB60FB6823F080023B689B
:104430005B691343FB607B68FA681A603B689A68A3
:104440007B68DA623B681A687B689A627B680A4A12
:10445000934203D07B680C4A934203D13B681A69AC
:104460007B681A637B6801225A6100BF1437BD461E
:104470005DF8047B704700BF00000140000400406D
:1044800000080040000C00400004014000400140D2
:10449000004401400048014000180040001C00405A
:1044A0000020004080B487B000AF786039607B683E
:1044B0001B6A23F001027B681A627B681B6A7B61BE
:1044C0007B685B683B617B689B69FB60FB6823F0F2
:1044D0007003FB60FB6823F00303FB603B681B6811
:1044E000FA681343FB607B6923F002037B613B683E
:1044F0009B687A6913437B617B68204A934203D0AF
:104500007B681F4A93420CD17B6923F008037B61CF
:104510003B68DB687A6913437B617B6923F00403A2
:104520007B617B68154A934203D07B68144A9342AF
:1045300011D13B6923F480733B613B6923F4007321
:104540003B613B685B693A6913433B613B689B692C
:104550003A6913433B617B683A695A607B68FA6841
:104560009A613B685A687B685A637B687A691A6209
:1045700000BF1C37BD465DF8047B7047000001405A
:104580000004014080B487B000AF786039607B6878
:104590001B6A23F010027B681A627B681B6A7B61CE
:1045A0007B685B683B617B689B69FB60FB6823F40D
:1045B000E043FB60FB6823F44073FB603B681B68CF
:1045C0001B02FA681343FB607B6923F020037B61C5
:1045D0003B689B681B017A6913437B617B68224AB5
:1045E000934203D07B68214A93420DD17B6923F02B
:1045F00080037B613B68DB681B017A6913437B6145
:104600007B6923F040037B617B68174A934203D0A8
:104610007B68164A934213D13B6923F480633B6164
:104620003B6923F400633B613B685B699B003A692B
:1046300013433B613B689B699B003A6913433B61B1
:104640007B683A695A607B68FA689A613B685A6885
:104650007B689A637B687A691A6200BF1C37BD4623
:104660005DF8047B704700BF00000140000401407A
:1046700080B487B000AF786039607B681B6A23F430
:1046800080727B681A627B681B6A7B617B685B68EF
:104690003B617B68DB69FB60FB6823F07003FB60B8
:1046A000FB6823F00303FB603B681B68FA68134355
:1046B000FB607B6923F400737B613B689B681B0292
:1046C0007A6913437B617B68214A934203D07B68FC
:1046D000204A93420DD17B6923F400637B613B68E0
:1046E000DB681B027A6913437B617B6923F4806377
:1046F0007B617B68164A934203D07B68154A9342DC
:1047000013D13B6923F480533B613B6923F400538D
:104710003B613B685B691B013A6913433B613B6842
:104720009B691B013A6913433B617B683A695A6094
:104730007B68FA68DA613B685A687B68DA637B6891
:104740007A691A6200BF1C37BD465DF8047B70476A
:10475000000001400004014080B487B000AF7860E1
:1047600039607B681B6A23F480527B681A627B681D
:104770001B6A3B617B685B687B617B68DB69FB6014
:10478000FB6823F4E043FB60FB6823F44073FB60A9
:104790003B681B681B02FA681343FB603B6923F408
:1047A00000533B613B689B681B033A6913433B61C1
:1047B0007B68124A934203D07B68114A934209D125
:1047C0007B6923F480437B613B685B699B017A6969
:1047D00013437B617B687A695A607B68FA68DA61A7
:1047E0003B685A687B681A647B683A691A6200BF42
:1047F0001C37BD465DF8047B704700BF00000140D8
:104800000004014080B487B000AFF860B9607A60FE
:10481000FB681B6A7B61FB681B6A23F00102FB6873
:104820001A62FB689B693B613B6923F0F0033B61C3
:104830007B681B013A6913433B617B6923F00A03E0
:104840007B617A69BB6813437B61FB683A699A6153
:10485000FB687A691A6200BF1C37BD465DF8047BAD
:10486000704780B487B000AFF860B9607A60FB68C9
:104870001B6A23F01002FB681A62FB689B697B616C
:10488000FB681B6A3B617B6923F470437B617B6837
:104890001B037A6913437B613B6923F0A0033B61EF
:1048A000BB681B013A6913433B61FB687A699A61F3
:1048B000FB683A691A6200BF1C37BD465DF8047B8D
:1048C000704780B485B000AF786039607B689B68C2
:1048D000FB60FB6823F07003FB603A68FB681343DE
:1048E00043F00703FB607B68FA689A6000BF1437E7
:1048F000BD465DF8047B704780B487B000AFF860B8
:10490000B9607A603B60FB689B687B617B6923F4DC
:104910007F437B613B681A027B681A43BB68134381
:104920007A6913437B61FB687A699A6000BF1C3720
:10493000BD465DF8047B704780B487B000AFF86077
:10494000B9607A60BB6803F01F03012202FA03F327
:104950007B61FB681A6A7B69DB431A40FB681A6259
:10496000FB681A6ABB6803F01F03796801FA03F356
:104970001A43FB681A6200BF1C37BD465DF8047B12
:10498000704780B483B000AF786000BF0C37BD467D
:104990005DF8047B704780B483B000AF786000BFDF
:1049A0000C37BD465DF8047B704780B582B000AF20
:1049B00078607B68002B01D101233FE07B6893F88E
:1049C0003D30DBB2002B06D17B68002283F83C200F
:1049D0007868FCF70FFF7B68242283F83D207B6812
:1049E0001B68DA687B681B6822F40052DA6078681A
:1049F00000F028F87B681B681A697B681B6822F442
:104A000090421A617B681B685A697B681B6822F0B8
:104A10002A025A617B681B68DA687B681B6842F46B
:104A20000052DA607B6800221A647B68202283F8D7
:104A30003D207B68202283F83E200023184608375B
:104A4000BD4680BD2DE9F04F9FB000AFF866FB6E0C
:104A50001B681B6923F44050FB6ED968FB6E1A6813
:104A600040EA01031361FB6E9A68FB6E1B691A43EF
:104A7000FB6E5B691A43FB6EDB6913433B67FB6E9E
:104A80001B68DB6823F4164121F00C01FB6E1A68E9
:104A90003B6F0B43D360FB6E1B685B6923F4407074
:104AA000FB6E9969FB6E1A6840EA01035361FB6E65
:104AB0001A68C54B9A4204D0FB6E1A68C34B9A42DF
:104AC00003D1FDF7C5FB786702E0FDF7ADFB786722
:104AD000FB6EDB69B3F5004F40F0B6807B6F1C4680
:104AE0004FF0000522462B46911839645B417B64E8
:104AF000D7E91023121945EB03034FF000004FF0E4
:104B00000001D90041EA5271D00002460B4611194A
:104B100039666B417B66FB6E5B681A464FF000039B
:104B20009118B9635B41FB63D7E90E23D7E91801FC
:104B3000FCF7DAF802460B46A54BA3FB02235B0900
:104B40001E017B6F1C464FF0000522462B46911834
:104B500039635B417B63D7E90C23121945EB0303EF
:104B60004FF000004FF00001D90041EA5271D0002F
:104B700002460B461119B9656B41FB65FB6E5B681C
:104B80001A464FF000039118B9625B41FB62D7E906
:104B90000A23D7E91601FCF7A7F802460B468C4B0F
:104BA000A3FB02135B09642101FB03F3D31ADB00AF
:104BB0003233874AA2FB03235B095B0003F4F873DB
:104BC0001E447B6F18464FF0000102460B469418B6
:104BD0003C625B417B62D7E90823121841EB030377
:104BE0004FF000044FF00005DD0045EA5275D40097
:104BF00022462B4614183C654B417B65FB6E5B6877
:104C00001A464FF000039118B9615B41FB61D7E987
:104C10000623D7E91401FCF767F802460B466C4BF4
:104C2000A3FB02135B09642101FB03F3D31ADB002E
:104C30003233674AA2FB03235B0903F00702FB6ED2
:104C40001B6832449A60B9E07B6F1C464FF0000548
:104C500022462B46911839615B417B61D7E90423D9
:104C6000121945EB03034FF000004FF00001D9008B
:104C700041EA5271D00002460B4612EB040843EBA6
:104C80000509FB6E5B6818464FF000014FF000020B
:104C90004FF000038B0043EA907382004046494680
:104CA000FCF722F802460B46494BA3FB02235B09A3
:104CB0001E017B6F18464FF0000102460B46941808
:104CC000BC605B41FB60D7E90223121841EB030390
:104CD0004FF000044FF00005DD0045EA5275D400A6
:104CE00022462B461418BC644B41FB64FB6E5B6888
:104CF00018464FF000014FF000024FF000038B0008
:104D000043EA90738200D7E91201FBF7EDFF0246F8
:104D10000B462F4BA3FB02135B09642101FB03F33A
:104D2000D31A1B0132332A4AA2FB03235B0903F087
:104D3000F0031E447B6F18464FF0000102460B46FD
:104D400094183C605B417B60D7E90023121841EB6B
:104D500003034FF000044FF00005DD0045EA5275F3
:104D6000D40022462B4612EB000A43EB010BFB6EEC
:104D70005B6818464FF000014FF000024FF000034F
:104D80008B0043EA9073820050465946FBF7ACFF14
:104D900002460B460E4BA3FB02135B09642101FB89
:104DA00003F3D31A1B013233094AA2FB03235B0925
:104DB00003F00F02FB6E1B6832449A6000BF7C3721
:104DC000BD46BDE8F08F00BF001001400014014057
:104DD0001F85EB5180B582B000AF78607B68002BF7
:104DE00001D1012316E07868FCF74CFD7B68DA6896
:104DF0007B681B6842F080021A607B681A697B68D6
:104E00005B6842EA03017B689A687B681B680A4317
:104E10005A60002318460837BD4680BD80B483B071
:104E200000AF78607B681B687A68D2681A600023DC
:104E300018460C37BD465DF8047B704780B483B0DC
:104E400000AF03463960FB7197F90730002B0ADB8E
:104E50003B68DAB20C4997F907301201D2B20B4421
:104E600083F800230AE03B68DAB20849FB7903F0D3
:104E70000F03043B1201D2B20B441A7600BF0C3769
:104E8000BD465DF8047B704700E100E000ED00E006
:104E900080B500AF054B1B6802F0AAFD0346012B4D
:104EA00001D003F049FF00BF80BD00BF10E000E06B
:104EB00080B500AF00216FF00400FFF7BFFF00BF17
:104EC00080BD000080B483B000AFEFF305833B608A
:104ED0003B68002B03D06FF005037B600CE00A4BAE
:104EE0001B68002B05D1084B01221A6000237B6050
:104EF00002E04FF0FF337B607B6818460C37BD46FD
:104F00005DF8047B704700BF6402002080B582B06A
:104F100000AFEFF305833B603B68002B03D06FF0DD
:104F200005037B6010E00B4B1B68012B09D1FFF7D9
:104F3000BFFF084B02221A6002F0CEF800237B600C
:104F400002E04FF0FF337B607B6818460837BD46B0
:104F500080BD00BF6402002080B400AF4FF47A73BC
:104F60001846BD465DF8047B7047000080B400AF72
:104F7000034B1B681846BD465DF8047B704700BFB5
:104F80000000002080B58EB004AFF860B9607A6090
:104F900000233B61EFF305837B617B69002B7ED1AE
:104FA000FB68002B7BD080233B621823FB6100232E
:104FB0007B624FF0FF33BB617B68002B45D07B6881
:104FC0001B68002B02D07B681B687B627B689B6937
:104FD000002B02D07B689B69FB61FB69002B08D02A
:104FE000FB69382B05D87B685B6803F00103002B55
:104FF00001D0002354E07B685B69002B03D07B6801
:105000005B699B083B627B689B68002B0ED07B68CA
:10501000DB68C32B0AD97B681B69002B06D07B6831
:105020005B69002B02D00123BB6110E07B689B68A9
:10503000002B0CD17B68DB68002B08D17B681B69D7
:10504000002B04D10023BB6101E00023BB61BB69DD
:10505000012B10D17B681B697A68926802920193D8
:10506000FB690093BB683A6A796AF86801F06AFDE7
:1050700003463B6113E0BB69002B10D13B6A9AB237
:1050800007F110030193FB690093BB68796AF86824
:1050900001F0B5FD0346012B01D000233B613B69C4
:1050A00018462837BD4680BD80B586B000AF786011
:1050B0007B683B61EFF30583BB60BB68002B03D0CB
:1050C0006FF005037B6117E03B69002B03D16FF0A4
:1050D00003037B6110E0386901F098FF0346FB731E
:1050E000FB7B042B05D000237B61386901F0E8FECF
:1050F00002E06FF002037B617B6918461837BD46FA
:1051000080BD000080B588B002AF786039607B68F0
:105110007B617B69002B02D03B68002B03DA6FF0C8
:105120000303FB6035E04FF0FF33FB60EFF30583D3
:105130003B613B69002B1FD00023BB6007F10803D4
:105140000093002301223968786902F0F9FE07F123
:105150000C030022009200220021786902F0F0FE88
:10516000BB68002B15D00D4B4FF080521A60BFF377
:105170004F8FBFF36F8F0CE00023012239687869ED
:1051800002F020FE07F10C0300220021786902F0F2
:1051900019FEFB6818461837BD4680BD04ED00E0D7
:1051A00080B58CB000AFF860B9607A60EFF305832A
:1051B0007B617B69002B03D06FF00503FB626BE022
:1051C000FB68002B03DA6FF00303FB6264E0BB684B
:1051D00003F00203002B02D00023BB6201E0FB6856
:1051E000BB620023FB627B687B6202F093F838624B
:1051F00007F110027B6AB96A002002F083FDF861B2
:10520000FB69012B37D1FA6AFB681340FB623B69EB
:10521000FA6A1343FB62BB6803F00103002B0CD056
:10522000FA68FB6A1340FA689A4232D07B68002B16
:105230000FD16FF00203FB622EE0FA68FB6A1340A5
:10524000002B28D17B68002B03D16FF00203FB6297
:1052500022E002F05FF802463B6AD31ABB61BA69EA
:105260007B6A9A4202D900237B620EE07A6ABB69AC
:10527000D31A7B6209E07B68002B03D16FF0020335
:10528000FB6202E06FF00103FB62FB69002BAFD110
:1052900002E000BF00E000BFFB6A18463037BD46A1
:1052A00080BD80B584B000AF7860EFF30583BB604C
:1052B000BB68002B03D06FF00503FB6007E0002301
:1052C000FB607B68002B02D0786801F06BFEFB6806
:1052D00018461037BD4680BD80B584B000AF7860F9
:1052E000786803F04DFBF860FB68002B05D0FB6885
:1052F0001B68FA6852681046984700BF1037BD46D1
:1053000080BD000080B58CB002AFF8607A603B6071
:105310000B46FB7200233B62EFF305833B613B6965
:10532000002B63D1FB68002B60D0082003F094FDB4
:1053300078617B69002B59D07B69FA681A607B69B8
:105340007A685A60FB7A002B02D10023FB6101E0EE
:105350000123FB614FF0FF33BB6100237B623B689D
:10536000002B1CD03B681B68002B02D03B681B68DD
:105370007B623B689B68002B06D03B68DB682B2B6D
:1053800002D90123BB610CE03B689B68002B08D16C
:105390003B68DB68002B04D10023BB6101E00023E4
:1053A000BB61BB69012B0CD13B689B680193124B1D
:1053B00000937B69FA690121786A02F062FF386222
:1053C0000BE0BB69002B08D10B4B00937B69FA699A
:1053D0000121786A02F034FF38623B6A002B05D164
:1053E0007B69002B02D0786903F002FE3B6A184605
:1053F0002837BD4680BD00BFD952000880B588B0AF
:1054000002AF786039607B683B61EFF30583FB6036
:10541000FB68002B03D06FF005037B6117E03B694D
:10542000002B03D16FF003037B6110E00023009396
:1054300000233A680421386902F09CFF0346012BDF
:1054400002D100237B6102E06FF002037B617B6984
:1054500018461837BD4680BD80B588B000AF78606B
:105460000023FB61EFF30583BB60BB68002B74D1A5
:105470007B68002B03D07B685B68BB6101E0002385
:10548000BB61BB6903F00103002B02D001237B61E8
:1054900001E000237B61BB6903F00803002B5CD1B2
:1054A0004FF0FF333B617B68002B15D07B689B6816
:1054B000002B06D07B68DB684F2B02D901233B61B0
:1054C0000CE07B689B68002B08D17B68DB68002BB5
:1054D00004D100233B6101E000233B613B69012BC8
:1054E00012D17B69002B07D07B689B68194604208A
:1054F00000F08DFCF86116E07B689B68194601207E
:1055000000F085FCF8610EE03B69002B0BD17B6954
:10551000002B04D0042000F062FCF86103E00120BD
:1055200000F05DFCF861FB69002B0CD07B68002B60
:1055300003D07B681B68FB6001E00023FB60F96817
:10554000F86901F077FAFB69002B06D07B69002B24
:1055500003D0FB6943F00103FB61FB691846203768
:10556000BD4680BD80B586B000AF786039607B688D
:1055700023F001033B617B6803F00103FB60002320
:105580007B61EFF30583BB60BB68002B03D06FF03A
:1055900005037B612CE03B69002B03D16FF0030313
:1055A0007B6125E0FB68002B11D03968386900F079
:1055B0007DFC0346012B1BD03B68002B03D06FF012
:1055C00001037B6114E06FF002037B6110E0396836
:1055D000386900F01BFF0346012B09D03B68002B04
:1055E00003D06FF001037B6102E06FF002037B6187
:1055F0007B6918461837BD4680BD80B586B000AFC0
:1056000078607B6823F001033B617B6803F0010352
:10561000FB6000237B61EFF30583BB60BB68002B5D
:1056200003D06FF005037B611FE03B69002B03D1C2
:105630006FF003037B6118E0FB68002B09D0386929
:1056400000F000FC0346012B0FD06FF002037B61DA
:105650000BE0002300220021386900F05DFC0346C6
:10566000012B02D06FF002037B617B69184618376B
:10567000BD4680BD80B58AB002AFF860B9607A607F
:105680000023FB61EFF305833B613B69002B5FD196
:10569000FB68002B5CD0BB68002B59D04FF0FF3368
:1056A000BB617B68002B29D07B689B68002B12D0E4
:1056B0007B68DB684F2B0ED97B681B69002B0AD0F7
:1056C0007B685A69FB68B96801FB03F39A4202D30D
:1056D0000123BB6114E07B689B68002B10D17B68C1
:1056E000DB68002B0CD17B681B69002B08D17B6821
:1056F0005B69002B04D10023BB6101E00023BB6187
:10570000BB69012B0BD17B681A697B689B68002100
:105710000091B968F86800F073FAF86108E0BB69B5
:10572000002B05D10022B968F86800F0E1FAF861B1
:10573000FB69002B0CD07B68002B03D07B681B68B7
:105740007B6101E000237B617969F86901F072F9FE
:10575000FB6918462037BD4680BD000080B588B083
:1057600000AFF860B9603B601346FB71FB68BB613A
:105770000023FB61EFF305837B617B69002B28D05D
:10578000BB69002B05D0BB68002B02D03B68002B07
:1057900003D06FF00303FB6138E000233B6107F1A6
:1057A00010020023B968B86900F0B4FC0346012B6D
:1057B00003D06FF00203FB6128E03B69002B25D08A
:1057C000154B4FF080521A60BFF34F8FBFF36F8FAE
:1057D0001CE0BB69002B02D0BB68002B03D16FF02B
:1057E0000303FB6112E000233A68B968B86900F06E
:1057F00093FB0346012B09D03B68002B03D06FF0CD
:105800000103FB6102E06FF00203FB61FB691846D4
:105810002037BD4680BD00BF04ED00E080B588B0F4
:1058200000AFF860B9607A603B60FB68BB61002341
:10583000FB61EFF305837B617B69002B28D0BB699B
:10584000002B05D0BB68002B02D03B68002B03D097
:105850006FF00303FB6137E000233B6107F11003A6
:105860001A46B968B86900F0DDFE0346012B03D083
:105870006FF00203FB6127E03B69002B24D0154B3E
:105880004FF080521A60BFF34F8FBFF36F8F1BE052
:10589000BB69002B02D0BB68002B03D16FF0030360
:1058A000FB6111E03A68B968B86900F0CFFC0346C3
:1058B000012B09D03B68002B03D06FF00103FB6183
:1058C00002E06FF00203FB61FB6918462037BD461A
:1058D00080BD00BF04ED00E080B586B000AF786009
:1058E0007B683B613B69002B02D100237B610EE0AA
:1058F000EFF30583FB60FB68002B04D0386900F0F0
:105900002FFF786103E0386900F00CFF78617B6954
:1059100018461837BD4680BD80B586B000AF7860A8
:105920007B683B61EFF30583FB60FB68002B03D0D2
:105930006FF005037B610EE03B69002B03D16FF034
:1059400003037B6107E0386901F09EF800237B6167
:10595000386900F023FF7B6918461837BD4680BDC3
:1059600080B485B000AFF860B9607A60FB68074A20
:105970001A60BB68064A1A607B6880221A6000BF02
:105980001437BD465DF8047B704700BF68020020F5
:105990002C03002080B485B000AFF860B9607A6055
:1059A000FB68074A1A60BB68064A1A607B684FF4B6
:1059B00080721A6000BF1437BD465DF8047B7047E3
:1059C0002C050020F005002080B483B000AF786083
:1059D0007B6803F108027B685A607B684FF0FF32F6
:1059E0009A607B6803F108027B68DA607B6803F1E8
:1059F00008027B681A617B6800221A6000BF0C37BE
:105A0000BD465DF8047B704780B483B000AF78601A
:105A10007B6800221A6100BF0C37BD465DF8047B2D
:105A2000704780B485B000AF786039607B685B6890
:105A3000FB603B68FA685A60FB689A683B689A604A
:105A4000FB689B683A685A60FB683A689A603B68F2
:105A50007A681A617B681B685A1C7B681A6000BFF1
:105A60001437BD465DF8047B704780B485B000AF45
:105A7000786039603B681B68BB60BB68B3F1FF3F6F
:105A800003D17B681B69FB600CE07B680833FB601B
:105A900002E0FB685B68FB60FB685B681B68BA68D8
:105AA0009A42F6D2FB685A683B685A603B685B686A
:105AB0003A689A603B68FA689A60FB683A685A608C
:105AC0003B687A681A617B681B685A1C7B681A609D
:105AD00000BF1437BD465DF8047B704780B485B0C5
